:100000000C9497010C94DE010C94DE010C94DE013B
:100010000C94DE010C94DE010C94DE010C94DE01E4
:100020000C94DE010C94DE010C9479170C94661884
:100030000C94DC270C94DE010C94DE010C94DE01A0
:100040000C94DE010C94772C0C94DE010C94DE01F0
:100050000C94DE010C9494270C94DE010C94DE01C8
:100060000C94DE010C94580D0C94DE010C94DE010E
:100070000C94DE010C94DE010C94DE010C94DE0184
:100080000C94DE010C94DE010C94DE010C94DE0174
:100090000C94DE010C94DE010C94DE010C94DE0164
:1000A0000C94DE010C94DE010C94DE01A302B80274
:1000B000E602E602E602E602E602E602C602CE0238
:1000C000D102D402D702DA02DD022A032C032E0366
:1000D00032033403360338033A033F0345034A032C
:1000E0003E094809480951095109700970098409F4
:1000F0008409C70CC70CC70CC70CCA0CCA0CCA0CA5
:10010000CD0CCD0CCD0CCD0CCD0CCD0CD00CD00C21
:10011000D00CD00CD00CD00CD30CD30CD30CCE18EC
:10012000F118AC19F118AC1936195919AC197B1919
:100130008E196D1D6D1D9A1D9A1DF51D551ED82019
:10014000D820771ED820741F741F3F205520D82038
:10015000C420014E024E00014D024D00014B024BE6
:1001600000014A024A0029141A0815171C180C121B
:100170002A7C041607090A0B0D0E0F28791D1B0691
:100180001905111036377D787B7A7E80802C1350CC
:10019000514FFFDC8000000000000101010202035A
:1001A0000405050607090A0B0C0E0F11121415178A
:1001B000191B1D1F212325282A2C2F313436393BAA
:1001C0003E414346494C4F5255585A5D6164676AF7
:1001D0006D707376797C7F8386898C8F9295989BDE
:1001E0009EA2A5A7AAADB0B3B6B9BCBEC1C4C6C9CC
:1001F000CBCED0D3D5D7DADCDEE0E2E4E6E8EAEB3A
:10020000EDEEF0F1F3F4F5F6F8F9FAFAFBFCFDFD8A
:10021000FEFEFEFFFFFF0162026201620262000158
:100220002802280001E30115021502E30000000086
:1002300000000000000000010101020202030304AB
:100240000405050606070808090A0B0B0C0D0E0F1E
:1002500010111213151617191A1B1D1E2022232503
:1002600027292B2D2F313335383A3D3F4244474A19
:100270004D505356595C5F6266696C7074777B7E33
:1002800082868A8E9195999DA1A5A9ADB0B4B8BC7E
:10029000C0C3C7CBCED2D5D8DBDFE2E4E7EAECEFD0
:1002A000F1F3F5F7F8FAFBFCFDFEFFFFFFFFFFFFA0
:1002B000FFFEFDFCFBFAF8F7F5F3F1EFECEAE7E4FB
:1002C000E2DFDBD8D5D2CECBC7C3C0BCB8B4B0ADAB
:1002D000A9A5A19D9995918E8A86827E7B7774705F
:1002E0006C6966625F5C595653504D4A4744423FC1
:1002F0003D3A383533312F2D2B2927252322201E37
:100300001D1B1A19171615131211100F0E0D0C0BB9
:100310000B0A090808070606050504040303020280
:100320000201010100000000000000000000112493
:100330001FBECFEFDAE0DEBFCDBF04B603FE27C09D
:100340008091130890911408A0911508B091160897
:100350008730904BA740B04BD1F410921308109205
:100360001408109215081092160814BE84B7877FDF
:1003700084BF0FB6F894A89580916000886180933F
:100380006000109260000FBEE0E0FEE3099515E00A
:10039000A0E0B1E0EEE6F4E602C005900D92AA32CC
:1003A000B107D9F728E0AAE2B5E001C01D92A33158
:1003B000B207E1F70E9486120C9435320C940000CB
:1003C000CF93C82FCB010E943E28282F30E080E138
:1003D000989FA0011124422B532B4038510519F44A
:1003E00080E090E021C09770E92FF0E088E0C89F9E
:1003F000E00DF11D112484E0EE0FFF1F8A95E1F757
:10040000E20FF31FEE0FFF1FE050FC4825913491DF
:10041000C9018B7F833E910531F480912F0588239C
:1004200011F020E030E0C901CF910895EF92FF92E2
:100430000F931F93CF937C01062FC42F613029F0B7
:10044000A8F0643009F45CC06EC0FC01828188238E
:1004500009F453C00E94B82681FF06C00E94B82646
:1004600080FD02C085E342C089E240C0423009F10C
:1004700048F4442389F0413061F584E380932C05EE
:1004800088E225C04430F9F0C8F0453011F581E329
:1004900080932C058AE21BC00E94B82682FF02C00E
:1004A0008DE301C089E280932D0585E380932C05BF
:1004B00010C088E380932C0587E309C088E380930C
:1004C0002C0582E504C083E380932C058FE08093A4
:1004D0002D05F7018281882381F00E94B82685FFCF
:1004E00003C080912C0502C080912D0580932E05BC
:1004F00080912E050E940F1C14C080912E050FC004
:10050000FC018281882351F00E94B82681FD0BC036
:100510000E94B82685FD07C08CE2ECCF8CE20E94D9
:10052000811C0E94F526F7018281882309F44EC0C0
:1005300010E0F8013297EF30F10508F047C0EA5AB1
:10054000FF4F0C94F02E0E94B82680FF04C085E077
:1005500090E00E9451128FEF0E94AD1C8FEF0E941D
:10056000B41CCF911F910F91FF90EF900C94CD1C74
:1005700090912F0581E0892780932F0590E0CF91FE
:100580001F910F91FF90EF900C9441068C2FCF910B
:100590001F910F91FF90EF900C940B0988E190E070
:1005A0000EC083E190E00BC082E190E008C08CE0D7
:1005B00090E005C085E190E002C080EC90E0CF9132
:1005C0001F910F91FF90EF900C945112CF911F91BA
:1005D0000F91FF90EF900895662319F06130C1F0FC
:1005E00027C0FC018281882339F00E94262790933E
:1005F0002B0580932A051CC080912A0590912B051C
:100600000E943E27893C9105B4F48CE591E0089561
:10061000FC0182818111E9CF80912A0590912B05FF
:100620000E943E27893C91054CF482E591E00895B3
:1006300080E090E0089581E691E0089587E591E0FB
:10064000089590E08B30910560F5FC01EB59FF4F68
:100650000C94F02E89B11AC089B112C083B1829571
:1006600081701CC083B117C083B110C086B10EC0A9
:1006700086B106C08CB182FB882780F90FC08FB18C
:100680008095881F8827881F08958FB186FB88274B
:1006900080F904C08FB185FB882780F991E0892714
:1006A000089580E00895E82FF0E0EE0FFF1FED5968
:1006B000FA4F808191810895089580B38C7E80BB2C
:1006C0006E9808950F931F93CF93DF9385B780683B
:1006D00085BF85B7806885BF0E94B8088091AE0746
:1006E00081608093AE0787E787BD0E941D278FEC4E
:1006F00097E00197F1F700C000000E942627909331
:100700003305809332050E945D0380B38F7180BBF7
:1007100081B3806E81BB729A6A988AB18F738AB9ED
:100720008BB1806C8BB987B18F7387B988B1806CBE
:1007300088B984B18F7884B985B1806785B9C3E6FB
:10074000D5E004E315E019921992109262050E9417
:100750002627909361058093600580E090E0F80182
:10076000E80FF91F108201968B309105C1F7055FE4
:100770001F4F95E0CB36D90731F7DF91CF911F910D
:100780000F910895DF92EF92FF920F931F93CF93F3
:10079000DF938091620581110AC08091600590917C
:1007A00061050E943E27909331058093300580912A
:1007B000300590913105892B09F481C08091620543
:1007C000811106C00E9426279093610580936005E1
:1007D00080916205813041F028F0823071F08330E1
:1007E00071F003C0849A01C0819A00E010E02BE010
:1007F000D22EEE24E394F12C04C0809AF6CF6E9AA8
:10080000F4CFC0916205D0E0802F0E942103209197
:100810003005DC9EF001DD9EF00D1124E00FF11F8C
:10082000EC5CFA4F9081990F982B2150E1F7DC9EF8
:10083000F001DD9EF00D1124E00FF11FEC5CFA4F8A
:1008400090839701002E02C0220F331F0A94E2F713
:10085000892F8F71833061F028F48823B9F08130BB
:1008600031F506C08F3021F08F3111F08730F9F467
:10087000CC0FDD1FCD59DA4F88819981A90148231A
:100880005923452BA1F4282B392B0FC0CC0FDD1F8A
:10089000CD59DA4F88819981A90148235923452BE5
:1008A00031F02095309528233923398328830F5F31
:1008B0001F4F0B30110509F0A4CF0E945D038091FA
:1008C00062058F5F843018F48093620502C0109235
:1008D000620581E0DF91CF911F910F91FF90EF9022
:1008E000DF90089580910E018A3021F40E945D030B
:1008F000819A089580B3836180BB6E9A0895CF93E7
:1009000080910E018A30B9F483E00E9421038111A5
:1009100010C084E00E942103882359F086E00E94E1
:100920002103811106C087E00E94210391E081111B
:100930000DC090E00BC0C0E08C2F0E9421038111FC
:1009400004C0CF5FCB30C1F7F4CF91E0892FCF91B6
:100950000895279A2F98ACE6B5E080E0E82FE69559
:10096000F0E0EA58FF4FFE2FEE27282F217030E0ED
:10097000E20FF31F459154914D938F5F883071F7CB
:100980000895CF93C82F8091C50780FD28C0CC2340
:1009900041F1C43038F55C9880E8C23029F0C330AA
:1009A00031F08093E90705C08093E80702C0809387
:1009B000EA07EDECF7E08091E8079091E907A09154
:1009C000EA0781939193A19387E0E53EF80799F7B1
:1009D00068E070E08DEC97E00E945A0703C0C111F7
:1009E00001C02F9A81E090E001C0880FCA95EAF714
:1009F00090916B05892B80936B05CF910895CF93D0
:100A0000C82F8091C50780FD26C0CC2331F1C430AA
:100A100028F5C23029F0C33031F01092E90705C043
:100A20001092E80702C01092EA07EDECF7E080911F
:100A3000E8079091E907A091EA0781939193A19328
:100A400087E0E53EF80799F768E070E08DEC97E005
:100A50000E945A0703C0C11101C02F9881E090E0A5
:100A600001C0880FCA95EAF7809590916B0589239C
:100A700080936B059091C50790FD03C0811101C063
:100A80005C9ACF910895CF93DF93C0E0D0E080913E
:100A90006B0590E00C2E02C0959587950A94E2F7BD
:100AA00080FF04C08C2F0E94C10403C08C2F0E94C1
:100AB000FF042196C830D10551F7DF91CF910895F9
:100AC000CF92DF92EF92FF920F931F93CF93DF931A
:100AD0001F92CDB7DEB70CE615E0C12CD12CEE2469
:100AE000E394F12CF80191918F0198130FC090912C
:100AF0006B0597010C2C01C0220F0A94EAF72927F5
:100B000020936B0589830E9443058981FFEFCF1AEB
:100B1000DF0A44E0C416D10429F70F90DF91CF918A
:100B20001F910F91FF90EF90DF90CF900895EF927B
:100B3000FF920F931F93CF939CE6E92E95E0F92E39
:100B4000C0E0082F10E0F70191917F0180EF890F3D
:100B5000833078F4980102C0359527958A95E2F79D
:100B600020FF04C08C2F0E94C10403C08C2F0E9460
:100B7000FF04CF5FC83039F7CF911F910F91FF90DD
:100B8000EF9008958F929F92AF92BF92EF92FF9253
:100B90000F931F93CF934B015C010CE615E0C0E06F
:100BA000EE24E394F12CF80181918F019FEF980FCF
:100BB0009730D0F4970102C0220F331F8A95E2F7D5
:100BC000C901092E000CAA0BBB0B88219921AA216F
:100BD000BB21892B8A2B8B2B21F08C2F0E94C104E7
:100BE00003C08C2F0E94FF04CF5FC830E1F6CF9185
:100BF0001F910F91FF90EF90BF90AF909F908F90BB
:100C000008958F929F92AF92BF92EF92FF920F93AF
:100C10001F93CF934B015C010CE615E0C0E0EE247E
:100C2000E394F12CF80181918F0197EF980F9730A1
:100C3000D8F48850970102C0220F331F8A95E2F73B
:100C4000C901092E000CAA0BBB0B88219921AA21EE
:100C5000BB21892B8A2B8B2B21F08C2F0E94C10466
:100C600003C08C2F0E94FF04CF5FC830D9F6CF910C
:100C70001F910F91FF90EF90BF90AF909F908F903A
:100C80000895EF92FF920F931F93CF939CE6E92E66
:100C900095E0F92EC0E0082F10E0F70191917F0157
:100CA0008BEE890F883078F4980102C0359527952E
:100CB0008A95E2F720FF04C08C2F0E94C10403C074
:100CC0008C2F0E94FF04CF5FC83039F7CF911F915E
:100CD0000F91FF90EF900895F894509A84B5836235
:100CE00084BD85B58B6085BD789487E787BD089501
:100CF000509818BC0895CF93C82F0E946E2CC7300F
:100D000090F4C430D0F4C13020F11092C407109296
:100D100077050E946C06EC2FF0E0EE56FE4FE49152
:100D2000E695E8BD19C0C930A0F40E946C06109287
:100D3000C40781E0809377050FC081E08093C407EA
:100D4000109277050E946C0687E08C1BCF910C9463
:100D5000742CCF910C947806CF910895869588BD18
:100D60000895CF93DF9300D000D01F92CDB7DEB7A8
:100D7000662399F10E9432276093BE067093BF06E6
:100D80008093C0069093C1068091120880FF14C022
:100D90008E7F8E3039F4809176058A508A3050F4F7
:100DA0008AE008C0803141F480917605865F8737FC
:100DB00008F086E7809376058091C50780FF0DC017
:100DC0008E738A3211F0823341F4809175058F5F02
:100DD0008C3108F08BE1809375050F900F900F9088
:100DE0000F900F90DF91CF91089580917705882320
:100DF00029F1809174058F5F863018F48093740513
:100E0000089510927405E0917605F0E0E35DFD4FE2
:100E1000E491E695E8BD809112088E7F8E3039F41A
:100E2000809176058F5F813838F080E805C0803189
:100E300029F48091760581508093760508952BB131
:100E4000342F309523233BB1432B3FB7F894FC015B
:100E5000680F791FE617F707E1F0819198E04BB929
:100E600087FF2BB9880F000000C02BB9000000C01D
:100E700000C000C000C000C000C000C000C000C072
:100E800000C000C000C000C000C000C09A9539F783
:100E9000E1CF3FBF08952AB1242B2AB99B01220F2D
:100EA000331F620F731F0E941F0785E88A95F1F7B1
:100EB0000000089542E00C944B070F931F93CF93CB
:100EC000C82FE62F862F90E08C0F911D840F911D67
:100ED00083329240D4F0A5E0CA9FC001112407E0FC
:100EE00010E0B8010E94DC2EC62FB5E0EB9FC001D8
:100EF0001124B8010E94DC2EE62FF5E04F9FC001BF
:100F00001124B8010E94DC2E462FD9011196CC93F2
:100F10001197EC9312964C93CF911F910F910895D6
:100F20000F931F93CF93DF9300D000D01F92CDB7C4
:100F3000DEB770E0869FF001879FF00D1124EF2F40
:100F4000FF27042F10E0E09FD001E19FB00DF09F3C
:100F5000B00D1124E0E0F1E0E61BF70BE09FB001DB
:100F6000E19F700DF09F700D11247C837983872F92
:100F70008B0F8D838A834B1B4B83892F90E063E01B
:100F800070E00E94C82EDE01A80FB91FFD01119666
:100F90004C91628183810F900F900F900F900F9072
:100FA000DF91CF911F910F910C945D078AE090E043
:100FB0000C94BE31AB01BC018AE090E00C94DC31B2
:100FC000E5ECF7E081E1808380EA8093C6078FEF4C
:100FD000828383836091C5077091C6078091C7079C
:100FE0009091C8070C94DA0788E1EDECF7E0DF0197
:100FF0001D928A95E9F708958091C50780FF0E94A8
:10100000F40768E070E08DEC97E00C945A072091AB
:10101000C50720FF15C025EE37E00E949007EDECD4
:10102000F7E08091E5079091E607A091E7078193AB
:101030009193A19387E0E53EF80799F70C94FC079C
:1010400008950F931F93CF93DF93D82FC92F062FA7
:10105000142F9091C50790FF4DC0892F8E73823059
:1010600029F48D2F9C2F0E9407081EC0892F86957A
:101070008F712EE1280F2F71243018F41091C807BA
:1010800013C0865E8F71893078F4D92FD295D695AA
:10109000D695D370C091C6078C2F880F880FD82B98
:1010A000C295C695C695C3709D2F9295990F990FBD
:1010B000907C8091C5078F73892B8093C507C2955B
:1010C000CC0FCC0FC07CD695D695CD2BC093C60740
:1010D0000093C7071093C8076091C5077091C607B2
:1010E0008091C7079091C807DF91CF911F910F9111
:1010F0000C94DA07DF91CF911F910F910895909191
:10110000C50790FF34C0917C811102C09E6207C068
:10111000883110F0926003C08F71880F982B9093E4
:10112000C5076091C5077091C6078091C707909168
:10113000C8070E94DA078091C50786958F7109F06C
:101140005C988091C507829586958695837090916D
:10115000C607292F220F220F4091C8076091C707A9
:10116000822B92959695969593700C9421080895EC
:101170000E94D62C811104C00E94B72C0E94E00767
:101180000E94D6076093C5077093C6078093C70770
:101190009093C8076E7311F06E3361F40E94E007FC
:1011A0000E94D6076093C5077093C6078093C70750
:1011B0009093C807549A8091C50780FF04C0869514
:1011C0008F710C947F080E94FC075C9A08958091AF
:1011D000C507982F909590FB80F98093C507609183
:1011E000C5077091C6078091C7079091C8070E94F4
:1011F000DA078091C50780FF04C086958F710C9433
:101200007F080E94F4070E94FC078091090884303F
:1012100009F05C9A0895CF92DF92EF92FF920F93BC
:101220001F93CF93DF93C82ED091C507D295D69543
:10123000D695D370D090C6078D2D880F880FD82BE8
:10124000D294D694D69493E0D922E090C7074091E7
:10125000C807042FC0FE02C0CFEF01C0C1E00E944A
:10126000B82681FDC1954C2D50E04930510508F05C
:101270005EC0FA01E059FF4F0C94F02EDF91CF9140
:101280001F910F91FF90EF90DF90CF900C94E708A3
:101290009091C5079695892F8F718C0F0E947F08BA
:1012A00046C02091C507229526952695237030913A
:1012B000C607432F440F440F842F822B932F929500
:1012C0009695969593709D5F24E1C202800D911DC5
:1012D000112460E073E00E94DC2ED82FD92E2AC0A2
:1012E0008091C70791E1C90270011124E80EF11C39
:1012F0002FEFE216F10409F01CF4F7FC29C01AC024
:10130000EE24EA94F12C16C08091C80791E1C9023D
:10131000A00111248A01080F111D0F3F110509F0CA
:101320001CF417FD18C006C00FEF10E003C022E048
:101330002C15A0F4402F6E2D8D2F9D2DDF91CF9178
:101340001F910F91FF90EF90DF90CF900C942108A8
:10135000E12CF12CEFCF00E010E0ECCFDF91CF914A
:101360001F910F91FF90EF90DF90CF900895CF9352
:10137000DF93E82F262F862F90E08E0F911D840F8C
:10138000911D83329240D4F035E0E39FC0011124D7
:10139000C7E0D0E0BE010E94DC2EE62F35E0239F9F
:1013A000C0011124BE010E94DC2E262F35E0439F90
:1013B000C0011124BE010E94DC2E462F80E090E087
:1013C000DC01A353B84F1196EC9311972C9312960E
:1013D0004C9303968831910599F7DF91CF910C9446
:1013E000FC07BF92CF92DF92EF92FF920F931F9371
:1013F000CF93DF93CDB7DEB729970FB6F894DEBF52
:101400000FBECDBFE22F2983F32F3A834B835C833A
:101410006D837E838F8398879F010B811C8120338E
:1014200009F0B2C0313009F042C0D8018C918A3045
:1014300010F40E940B09F80180818932B1F08A32E0
:1014400029F1883209F0F6C029960FB6F894DEBF6C
:101450000FBECDBFDF91CF911F910F91FF90EF9005
:10146000DF90CF90BF900C943D2D29960FB6F89445
:10147000DEBF0FBECDBFDF91CF911F910F91FF90C7
:10148000EF90DF90CF90BF900C941A2D29960FB655
:10149000F894DEBF0FBECDBFDF91CF911F910F91AA
:1014A000FF90EF90DF90CF90BF900C94FF2C3230E4
:1014B00099F4D8018C9129960FB6F894DEBF0FBE2F
:1014C000CDBFDF91CF911F910F91FF90EF90DF90F3
:1014D000CF90BF900C947F083330A9F4F80142817B
:1014E0006181808129960FB6F894DEBF0FBECDBF13
:1014F000DF91CF911F910F91FF90EF90DF90CF90F0
:10150000BF900C94B709343009F094C0D8018C9185
:10151000883048F511962C91119790E0FC01EE0F60
:10152000FF1F8E0F9F1FFC01E353F84F218312967C
:101530002C9112978C9190E0FC01EE0FFF1F8E0F03
:101540009F1FFC01E353F84F208313962C911397B0
:101550008C9190E0FC01EE0FFF1F8E0F9F1FFC018E
:10156000E353F84F228329960FB6F894DEBF0FBEDF
:10157000CDBFDF91CF911F910F91FF90EF90DF9042
:10158000CF90BF900C94FC07213309F053C0332354
:1015900009F450C065E271E085E895E039870E9462
:1015A0000E2FB02E780105E815E084E3C82E81E007
:1015B000D82E39858E2D8B198317F8F4F8010190F8
:1015C0000020E9F73197E558F540E0938405D7010D
:1015D0008D917D011F928F93DF92CF92FF27EB5762
:1015E000FA4FFF93EF9339870E94152F0F900F90BA
:1015F0000F900F900F900F90DCCF69EF72E085E8AD
:1016000095E00E94032F85E895E00E94DA0D84E6BC
:1016100090E029960FB6F894DEBF0FBECDBFDF91E4
:10162000CF911F910F91FF90EF90DF90CF90BF90DF
:101630000C949F0D29960FB6F894DEBF0FBECDBF58
:10164000DF91CF911F910F91FF90EF90DF90CF909E
:10165000BF900895CF93C82FE0918305F0E0EA563C
:10166000FE4F44918091C50782958695869583703B
:101670009091C607292F220F220F6091C707822B56
:1016800092959695969593700E9407083091030164
:1016900020918305C39F200D1124209383052C17CF
:1016A00038F08C2F90E0820F911D8F3791051CF040
:1016B000319530930301CF910895CF93C82FE5EC76
:1016C000F7E04381628180918105909182050E94BB
:1016D00007082091810530918205C90143E0C49F2C
:1016E000800D911D112460E073E00E94C82E90933C
:1016F000820580938105CF910895AF92BF92CF92DA
:10170000DF92EF92FF920F931F93CF93DF93082FF7
:10171000182F16955DECC52E57E0D52EE12CF12C37
:10172000A12C63E0B62E20917F0530918005C70182
:10173000820F931FC0E0D3E0B5010E94C82E96012E
:101740004091C8076091C7070E94900780E3E80EA8
:10175000F11C83E0C80ED11C80E8E81681E0F80691
:1017600011F70E94FC0720917F0530918005412FE1
:1017700050E000FF09C0CA0144E0880F991F4A9554
:10178000E1F7820F931F09C0C9019D5F24E0440F58
:10179000551F2A95E1F7841B950BBE010E94C82EA8
:1017A0009093800580937F05DF91CF911F910F91DA
:1017B000FF90EF90DF90CF90BF90AF900895CF92C1
:1017C000DF92EF92FF920F931F93CF93DF9390914D
:1017D0007E059F5F282F2695291758F090937E0548
:1017E000DF91CF911F910F91FF90EF90DF90CF90FD
:1017F0000895C82F10927E050E94F407C0FF02C012
:101800001FEF01C011E054E0D52E00E068E0E62EA5
:10181000F12CC0E0D3E0C09002011003C0011124FC
:101820008C0D911DC7FC9A950896B7010E94DC2E7D
:101830009C01220F331F820F931F9C012353384FAB
:101840004091C50742954695469543705091C6070D
:10185000652F660F660F862F842B952F9295969590
:101860009695937042E3049F800D911D1124BE0153
:101870000E94DC2E4091C8076091C7070E94900724
:101880000F5FDA94D110C7CF1C0D19301CF01092E5
:10189000020108C017FD03C01093020103C088E0D5
:1018A00080930201DF91CF911F910F91FF90EF90F4
:1018B000DF90CF900C94FC0790917D059F5F891776
:1018C00018F090937D05089510927D050E94F4070D
:1018D00020E030E090E080910101A901480F511D06
:1018E00087FD5A9548305105A8F4820F877090E023
:1018F000FC01EE0FFF1F8E0F9F1FFC01E353F84FFB
:101900008091E5079091E607A091E7078083918396
:10191000A28391E02F5F3F4F24303105E1F6911112
:101920000E94FC079091000180910101890F809332
:1019300001018D5F8B30C0F09195909300018091F3
:101940007B0590917C05889660E073E00E94C82E2C
:1019500090937C0580937B0525EE37E04091C80786
:101960006091C7070C94900708958091C50780FF88
:101970001DC05C991BC086958F71E82FF0E03297EF
:10198000E631F10598F4E758FF4F0C94F02E8150A2
:101990000C942A0B85500C945D0B87500C947D0B96
:1019A0008E500C94DF0B84510C945C0C08952F988E
:1019B0000E9478065C9A08958091BA06811106C04B
:1019C0000E94EA2C0E94B8080C94430508955C9983
:1019D00014C08091C50780FF10C080917A058F5F89
:1019E000813518F480937A0508C010927A058091A9
:1019F000BA06811102C00E94B50C809178059091C1
:101A000079050196813D27E0920728F490937905A6
:101A10008093780517C0109279051092780580910F
:101A2000BA06882379F080910908843039F00E9441
:101A300078065C9A85B1805885B904C01092BA06C0
:101A40000E94DC0C0C944D10F8948CE08093CC0038
:101A50001092CD00E9ECF0E0808180698083808184
:101A600088608083EAECF0E080818083E8ECF0E03D
:101A7000808182608083789408952091A30580916D
:101A8000A405821759F030E0F901EB55FA4F808137
:101A90002F5F3F4F2093A30590E008958FEF9FEFB6
:101AA00008959091C80095FFFCCF8093CE000895D3
:101AB0001F920F920FB60F9211242F933F934F93C3
:101AC0008F939F93EF93FF938091A40590E09C01E7
:101AD0002F5F3F4F4091A305421741F03091CE0058
:101AE000FC01EB55FA4F30832093A405FF91EF9151
:101AF0009F918F914F913F912F910F900FBE0F901B
:101B00001F9018958091B40608950895F89487E67B
:101B10008093CC001092CD00E9ECF0E080818069E8
:101B20008083808188608083EAECF0E0808180831C
:101B3000E8ECF0E080818260808378940895EF92F1
:101B4000FF920F931F93CF938C010E9426277C0155
:101B5000C0E0C7010E943E2780179107F0F40E9461
:101B60003D0D9C012F3F8FEF3807A9F02D3099F0E4
:101B70004C2F50E02A3051F4C23030F0FA01EC55CD
:101B8000F94F80818F3449F02FE530E0FA01EA55B2
:101B9000F94F2083CF5FCD30E0F2EC2FF0E0EA5533
:101BA000F94F108286EA96E0CF911F910F91FF9036
:101BB000EF900895CF93DF93EC018991882319F07A
:101BC0000E94510DFACFDF91CF910895CF93DF930B
:101BD000EC018F5691098230910520F08A579109C6
:101BE000029788F48091B7069091B806892B31F45A
:101BF00089E792E09093B8068093B706D093B60633
:101C0000C093B50604C01092B8061092B706809132
:101C1000B90681112CC087E391E00E94DA0DDF93B1
:101C2000CF9389E691E09F938F9388EE97E09F93FF
:101C30008F930E94152F88EE97E00E94DA0D84E6BC
:101C400090E00E949F0D42E050E06DE971E00E943B
:101C5000F62E0F900F900F900F900F900F90892BF2
:101C600019F41092B90603C081E08093B906DF91A0
:101C7000CF910895CF93DF93EC018091B906811144
:101C800049C08CE491E00E94DA0D8C81282F082E47
:101C9000000C330B3F938F938B81282F082E000C61
:101CA000330B3F938F938A81282F082E000C330B20
:101CB0003F938F938981282F082E000C330B3F937D
:101CC0008F9380E691E09F938F9388EE97E09F93A8
:101CD0008F930E94152F88EE97E00E94DA0D84E61C
:101CE00090E00E949F0D42E050E06DE971E00E949B
:101CF000F62E2DB73EB7245F3F4F0FB6F8943EBF88
:101D00000FBE2DBF892B19F41092B90603C081E0D4
:101D10008093B9068091B90681112DC08DE691E0BE
:101D20000E94DA0D88811F928F9389E691E09F933C
:101D30008F9388EE97E09F938F930E94152F88EEE4
:101D400097E00E94DA0D84E690E00E949F0D42E049
:101D500050E06DE971E00E94F62E0F900F900F9009
:101D60000F900F900F90892B19F41092B90603C0B1
:101D700081E08093B906DF91CF910895CF93DF93EF
:101D800085B7806885BF85B7806885BF559A5D989F
:101D90000E941D270E94860D2FEF81EE94E02150B6
:101DA00080409040E1F700C0000083E891E00E948D
:101DB000DA0D84E690E00E949F0D83E891E00E9496
:101DC000DA0D84E690E00E949F0DEC0142E050E0C5
:101DD00067E871E00E94F62E892B09F46DC042E09D
:101DE00050E06DE971E0CE010E94F62E892B09F4D6
:101DF00063C08091C9008F778093C9008091C9002A
:101E00008093C9000E94240D2FEF80E792E02150BB
:101E100080409040E1F700C0000083E891E00E941C
:101E2000DA0D84E690E00E949F0D2FEF80E792E0AC
:101E3000215080409040E1F700C000008DE891E023
:101E40000E94DA0D84E690E00E949F0D45E050E08C
:101E50006BE971E00E94F62E892B51F080EA91E047
:101E60000E94DA0D84E690E00E949F0D0E94BA273E
:101E70002FEF80E792E0215080409040E1F700C0D2
:101E8000000081EB91E00E94DA0D84E690E00E9470
:101E90009F0D45E050E060EC71E00E94F62E892B2A
:101EA00009F099C086EC91E00E94DA0D85EE91E090
:101EB000DF91CF910C94DA0D2FEF82E597E021505E
:101EC00080409040E1F700C0000080EA91E00E946D
:101ED000DA0D84E690E00E949F0D2FEF83ED90E3F2
:101EE000215080409040E1F700C0000083E891E07D
:101EF0000E94DA0D84E690E00E949F0D2FEF82E5AC
:101F000097E0215080409040E1F700C0000085E25A
:101F100092E00E94DA0D84E690E00E949F0D2FEF80
:101F200082E597E0215080409040E1F700C000003A
:101F300085E291E00E94DA0D8CE292E00E94DA0DD7
:101F400084E690E00E949F0D2FEF82E597E02150FC
:101F500080409040E1F700C0000089E392E00E94D9
:101F6000DA0D84E690E00E949F0D2FEF82E597E066
:101F7000215080409040E1F700C0000089E492E0E9
:101F80000E94DA0D84E690E00E949F0D2FEF82E51B
:101F900097E0215080409040E1F700C0000089E5C3
:101FA00092E00E94DA0D84E690E00E949F0D2FEFF0
:101FB00082E597E0215080409040E1F700C00000AA
:101FC00089E692E00E94DA0D84E690E00E949F0D7F
:101FD0000E94BA270ECFDF91CF910895CF93DF9360
:101FE0002091B906211156C0EC018CE792E00E94C5
:101FF000DA0D8F811F928F938E811F928F938D8127
:102000001F928F938C811F928F938B811F928F933E
:102010008A811F928F9388811F928F9380E992E02B
:102020009F938F9388EE97E09F938F930E94152F35
:1020300088EE97E00E94DA0D84E690E00E949F0D02
:1020400045E050E060EC71E00E94F62E2DB73EB7FF
:102050002E5E3F4F0FB6F8943EBF0FBE2DBF892BAB
:1020600021F481E08093B90602C01092B9068A81FA
:10207000988191110FC0833531F0893331F0873465
:1020800049F482E103C080E101C081E1DF91CF9199
:102090000C946005DF91CF9108958091B7069091DF
:1020A000B8060097F1F08230910530F001979093D7
:1020B000B8068093B70608952091A5062F5F209358
:1020C000A5068091B5069091B60630E043EF50E04A
:1020D000481B590B2417350720F01092A5060C94C5
:1020E000E60D0895CF935C9B9BC0C82F87EB92E0D1
:1020F0000E94DA0D84E690E00E949F0DFC01418170
:1021000080ED840F8A3020F081E08093C60632C0D3
:1021100082818A3378F5608170E06053710994E6BA
:10212000969FF001979FF00D112450E04053510904
:102130009AE0949F9001959F300D11242E0F3F1F20
:10214000280F311D83E0220F331F8A95E1F72A54AF
:1021500032403093100120930F0120318EE0380778
:1021600020F481E08093BA0605C023343E4010F08D
:102170001092BA06C23009F053C080910F019091BD
:102180001001833D2FE09207E8F48F362FE092078D
:10219000D8F48D332FE09207C8F4893D2EE09207E2
:1021A000B8F4873A2EE09207A8F485372EE092071C
:1021B00098F483342EE0920788F481319E4080F0B9
:1021C000C4E10FC0CAE50DC0C0E50BC0C6E409C03C
:1021D000CCE307C0C2E305C0C8E203C0CEE101C042
:1021E000CAE083EC92E00E94DA0D1F92CF9389E659
:1021F00091E09F938F9388EE97E09F938F930E9437
:10220000152F88EE97E00E94DA0D0F900F900F9037
:102210000F900F900F9084E690E0CF910C949F0D5B
:10222000CF9108950E9432276093BE067093BF0637
:102230008093C0069093C1060895CF93DF935D9974
:10224000EFC08091C6068823C1F084E690E00E942A
:102250009F0DEC0142E050E06DE971E00E94F62E26
:10226000892B59F045E050E060EC71E0CE010E940E
:10227000F62E892B11F01092C6068091C6068111A8
:1022800055C08091C2069091C3060E943E278938AE
:10229000934108F44BC00E9426279093C306809375
:1022A000C20682ED92E00E94DA0D84E690E00E9480
:1022B0009F0DFC018081813351F48091C50681110D
:1022C00018C081E08093C5061092C40612C0803306
:1022D00069F48091C506882319F01092C50609C0DB
:1022E0008091C4068F5F8093C40603C081E0809311
:1022F000C6068091C706811112C080910E01882305
:1023000071F08091C406823150F0809109088430C8
:1023100021F05D9A84E080930E011092C4068091B2
:102320000E01823018F481E00E9472108091090839
:102330008430B1F180910E01823029F40E94721034
:1023400083E080930E0180910E01813091F46091C1
:10235000BE067091BF068091C0069091C1060E9492
:10236000682769397A438105910518F082E08093E6
:102370000E0180910E01833099F46091BE06709138
:10238000BF068091C0069091C1060E946827613403
:1023900074458948910520F084E080930E015D9A90
:1023A0008091B9068823D1F083E891E00E94DA0D8C
:1023B00084E690E00E949F0D42E050E06DE971E0FC
:1023C0000E94F62E892B51F481EE92E00E94DA0DE4
:1023D00084E690E00E949F0D1092B9068091BB06A2
:1023E0008823F1F08C3011F0823171F48BEF92E0A0
:1023F0000E94DA0D8091BB06823119F484E193E0EA
:1024000007C080EC92E004C0853121F489E592E0B8
:102410000E94DA0D84E690E00E949F0D1092BB06A8
:102420008091C70681111EC00E94DC1A8450914021
:1024300059F00E94CD1C80911C018093BD06109222
:102440001C0184E091E01EC08091BC06811126C071
:1024500080910908843011F581E08093C70680934C
:10246000BC061CC00E94DC1A8151914079F081E0C9
:102470008093BC060E94CD1C8091BD0680931C01F8
:1024800081E191E0DF91CF910C94D71A80910908F6
:10249000843021F01092C7061092BC06DF91CF91D4
:1024A0000895833139F1A0F48C3009F18231F9F0CB
:1024B000853051F50E94CD1C2FEF89E698E121501F
:1024C00080409040E1F700C000000E94BA270DC094
:1024D000883129F0803C99F08531B1F408C09091A1
:1024E000C70681E089278093C70681E0089580931D
:1024F000BB06FBCF90910E0181E0892702C05D9A57
:102500008AE080930E01F1CF80E008951F93CF936E
:10251000DF9384B7877F84BF0FB6F894A895809126
:102520006000886180936000109260000FBE90E0B0
:1025300080E80FB6F89480936100909361000FBE1D
:102540000E9400170E945B178091E20084608093D4
:10255000E20078948FEF909109088150943041F017
:10256000EFE3FFE13197F1F700C000008111F3CFF5
:1025700080910908843019F481E08093C7060E9495
:10258000BE0E0E9412110E942F1B81E08093C8068C
:102590009DE088E10FB6F894A895809360000FBE87
:1025A00090936000C8E1DDE011E080910E0182307F
:1025B00008F43BC00E9472040E9405280E947F0418
:1025C000882351F10E945D030E9432276093BE066A
:1025D0007093BF068093C0069093C1060FB6F8941F
:1025E000A8958091600088618093600010926000DF
:1025F0000FBE0FB6F894A895C09360000FBED0939D
:1026000060000E943C2880910E01843018F05D9893
:102610000E94391B10930E0180910E01843008F046
:10262000C4CFA8950E941D11C0CFA8950E94391B48
:10263000F9CF8091DA060895CF93DF9300D01F92EF
:10264000CDB7DEB79C0180910908843019F593E07D
:1026500099833B832A839093E9008FEF9091E80060
:10266000815095FD06C09AE69A95F1F700C0811158
:10267000F5CF8091E80085FF0DC040E050E063E0B9
:1026800070E0CE0101960E94A2158091E8008E773D
:102690008093E8000F900F900F90DF91CF910895F5
:1026A000CF93DF9300D01F92CDB7DEB720910908FA
:1026B000243021F522E029839B838A8383E0809361
:1026C000E9008FEF9091E800815095FD06C09AE6F1
:1026D0009A95F1F700C08111F5CF8091E80085FF50
:1026E0000DC040E050E063E070E0CE0101960E9432
:1026F000A2158091E8008E778093E8000F900F90EC
:102700000F90DF91CF910895209109082430F1F4C2
:1027100022E02093E9002FEF3091E800215035FDB1
:1027200006C03AE63A95F1F700C02111F5CF2091A5
:10273000E80025FF0BC040E050E065E070E00E943B
:10274000A2158091E8008E778093E8000895CF93DA
:10275000DF9320910908243009F048C0EC018091F2
:102760001B018823E1F080911C018823C1F086E0E1
:102770008093E9008FEF9091E800815095FD06C0AD
:1027800095E19A95F1F700008111F5CF8091E8006D
:1027900085FF2CC040E050E060E170E017C081E0B0
:1027A0008093E9008FEF9091E800815095FD06C07D
:1027B0009AE69A95F1F700C08111F5CF8091E80073
:1027C00085FF14C040E050E068E070E0CE010E9458
:1027D000A2158091E8008E778093E80080E1FE01E9
:1027E000AAECB6E001900D928A95E1F7DF91CF91C6
:1027F000089580910808811109C00E9400170E9465
:102800005B178091E20084608093E200089510924B
:102810000808089508951F93CF93DF93CDB7DEB7CF
:10282000A0970FB6F894DEBF0FBECDBF8091090808
:10283000843009F044C01091E9001F709091EC00C1
:10284000892F817090FD80E8182B85E08093E90046
:102850008091E80082FF15C08091E80085FF0CC0E0
:1028600040E050E060E270E0CE0101960E94ED157C
:10287000CE0101960E94C0198091E8008B77809369
:10288000E80084E08093E9008091EB0080FF14C0B1
:102890008091EE0087FF10C08091E80085FF03C0A3
:1028A0001092F100F9CF8091E80080FF05C080917F
:1028B000E8008E778093E8001F701093E900A096DF
:1028C0000FB6F894DEBF0FBECDBFDF91CF911F9141
:1028D000089542E061EC81E00E949B1642E061ECC9
:1028E00082E00E949B1642E061EC83E00E949B160E
:1028F00042E261EC84E00E949B1642E260EC85E0DB
:102900000E949B1642E161EC86E00C949B1680913C
:102910000B08833009F455C030F4813071F08230F7
:1029200009F48EC008958A3009F47AC08B3009F416
:1029300060C0893009F09CC020C080910A08813AAB
:1029400009F096C08091E800877F8093E80080912D
:102950000E0890910F08892B21F460E18AEC96E033
:1029600003C060E080E090E070E00E943816809143
:10297000E8008B778093E800089580910A088132FF
:1029800009F076C080910E0890910F08009719F019
:10299000049709F06DC08091E800877F8093E8007C
:1029A0008091E80082FD05C0809109088111F8CF6F
:1029B0005FC08091F1008093DA068091E8008B7708
:1029C00053C080910A08813A09F052C080910E08E4
:1029D00090910F08892B09F04BC08091E800877F08
:1029E0008093E8008091E80080FFFCCF80911B017C
:1029F00036C080910A088132D9F580910E089091F5
:102A00000F08892BA9F58091E800877F8093E80063
:102A10000E94AF1680910C0880931B010C94CD1C72
:102A200080910A08813221F58091E800877F8093A8
:102A3000E8000E94AF1680910D088093DB06089590
:102A400080910A08813AA1F48091E800877F809301
:102A5000E8008091E80080FFFCCF8091DB06809346
:102A6000F1008091E8008E778093E8000C94AF1617
:102A700008958091DA068093C9061092DA0680E004
:102A80000E9497050E94E01B0C94CD1C0C943915F4
:102A90000E943C288091C9068093DA0608950C9420
:102AA0004815292F332723303105C1F05CF421303C
:102AB000310579F022303105E9F58DE890E02DE619
:102AC00033E03CC021323105C1F02232310511F131
:102AD00031C082E190E02AEF33E030C099278330A3
:102AE000910540F5FC01EE0FFF1FED5CFC4F2081CE
:102AF0003181FC01E05DFC4F1AC06530D8F4E62F4F
:102B0000F0E0EE0FFF1FEA5DFC4F2081318189E08C
:102B100090E014C0653070F470E0FB01EE0FFF1F11
:102B2000E45EFC4F20813181FB01E95EFC4F808136
:102B300090E004C080E090E020E030E0FA013183D2
:102B400020830895CF92DF92EF92FF920F931F930D
:102B5000CF93DF93EC018B016A010E94CE168111A5
:102B600033C0C114D10439F0F60180819181081B72
:102B7000190BC80FD91FE12CF12C0115110519F102
:102B80008091E80085FD16C08091E8008E778093E3
:102B9000E800C114D10449F0F60180819181E80E6A
:102BA000F91EF182E08285E00FC00E94CE168823D4
:102BB00021F30AC089918093F10001501109FFEFC0
:102BC000EF1AFF0ADACF80E0DF91CF911F910F91CA
:102BD000FF90EF90DF90CF900895CF92DF92EF9229
:102BE000FF920F931F93CF93DF93EC018B016A0148
:102BF0000E94CE16811133C0C114D10439F0F60100
:102C000080819181081B190BC80FD91FE12CF12C71
:102C10000115110519F18091E80085FD16C080911C
:102C2000E8008B778093E800C114D10449F0F601E5
:102C300080819181E80EF91EF182E08285E00FC06B
:102C40000E94CE16882321F30AC08091F100899357
:102C500001501109FFEFEF1AFF0ADACF80E0DF9190
:102C6000CF911F910F91FF90EF90DF90CF9008953B
:102C700020911008309111082617370748F0611588
:102C8000710539F42091E8002E772093E80001C007
:102C9000B90140E061157105A9F1209109082223CD
:102CA00009F443C0253009F442C02091E80023FD17
:102CB00040C02091E80022FD32C02091E80020FFB2
:102CC000E9CF4091F3002091F20030E0342BFC0179
:102CD000CF016115710559F02830310540F481911B
:102CE0008093F100615071092F5F3F4FF1CF41E0B8
:102CF0002830310509F040E02091E8002E7720933C
:102D0000E800C8CF4111C9CF0AC0809109088823C3
:102D100061F0853061F08091E80083FD0AC0809108
:102D2000E80082FFF2CF80E0089582E0089583E01A
:102D3000089581E008958F708093E900EBEEF0E054
:102D4000808181608083EDEEF0E010826093EC0082
:102D500040838091EE00881F8827881F0895809106
:102D60000A0887FF11C08091E80082FD05C08091AC
:102D700009088111F8CF11C08091E8008B770BC052
:102D800080910908882349F08091E80080FFF8CFFE
:102D90008091E8008E778093E80008952091E40008
:102DA0003091E50095E64091EC00842F817040FF62
:102DB00022C08091E80080FD1CC080910908882312
:102DC00091F0853091F08091EB0085FD10C040912D
:102DD000E4005091E5004217530729F39A019150FE
:102DE00011F784E0089582E0089583E0089581E07A
:102DF000089580E008954091E80042FFDECF0895F5
:102E00000E946C170E947417E0EEF0E080818160F0
:102E10008083E8EDF0E080818F77808319BCA7ED97
:102E2000B0E08C918E7F8C9380818F7E8083109216
:102E3000080808950F931F93CF93DF930E946C1798
:102E40000E947417C8EDD0E088818F7788838881CD
:102E50008068888388818F7D888319BC10920908D7
:102E6000109206081092070800EE10E0F801808129
:102E70008B7F808388818160888342E060E080E08E
:102E80000E949B16E1EEF0E080818E7F8083E2EE6F
:102E9000F0E0808181608083808188608083F80198
:102EA00080818E7F8083888180618883DF91CF914C
:102EB0001F910F910895E8EDF0E080818F7E80836F
:102EC000E7EDF0E080818160808384E082BF81E073
:102ED000809308080C941A17E8EDF0E080818E7F4B
:102EE00080831092E20008951092DA001092E100BF
:102EF00008951F920F920FB60F9211242F933F93B4
:102F00004F935F936F937F938F939F93AF93BF93F1
:102F1000EF93FF938091E10082FF0BC08091E2006C
:102F200082FF07C08091E1008B7F8093E1000E94C7
:102F30000B148091DA0080FF1DC08091D80080FFC3
:102F400019C08091DA008E7F8093DA008091D900D9
:102F500019BC80FF0BC082E089BD09B400FEFDCF23
:102F600081E0809309080E94F91304C010920908B7
:102F70000E9407148091E10080FF19C08091E20057
:102F800080FF15C08091E2008E7F8093E2008091E7
:102F9000E20080618093E2008091D800806280939B
:102FA000D80019BC85E0809309080E9446158091DD
:102FB000E10084FF4DC08091E20084FF49C019BC4C
:102FC00082E089BD09B400FEFDCF8091D8008F7DDD
:102FD0008093D8008091E10084FF1AC08091C806D8
:102FE0008823B1F00FB6F894A895809160008861AD
:102FF00080936000109260000FBE9CE088E10FB6E5
:10300000F894A895809360000FBE90936000FFCF66
:103010008091E1008F7E8093E1008091E2008F7EBD
:103020008093E2008091E20081608093E2008091D1
:103030000608882311F084E007C08091E30087FD33
:1030400002C081E001C083E0809309080E944F150F
:103050008091E10083FF29C08091E20083FF25C0B9
:103060008091E100877F8093E10082E080930908EE
:10307000109206088091E1008E7F8093E10080919C
:10308000E2008E7F8093E2008091E2008061809375
:10309000E20042E060E080E00E949B168091F00038
:1030A00088608093F0000E940A14FF91EF91BF9115
:1030B000AF919F918F917F916F915F914F913F91D0
:1030C0002F910F900FBE0F901F9018951F920F9287
:1030D0000FB60F9211242F933F934F935F936F93EB
:1030E0007F938F939F93AF93BF93CF93DF93EF9390
:1030F000FF93C091E900CF708091EC00D82FD17080
:1031000080FDD0E81092E9008091F000877F8093E5
:10311000F00078940E94AA181092E9008091F000C3
:1031200088608093F000CD2BCF70C093E900FF91B1
:10313000EF91DF91CF91BF91AF919F918F917F914F
:103140006F915F914F913F912F910F900FBE0F9014
:103150001F9018951F93CF93DF9300D0CDB7DEB7A4
:10316000EAE0F8E088E08E0F9091F10091938E13E1
:10317000FBCF0E9487148091E80083FFEDC080910F
:103180000A0890910B08492F50E04A30510508F089
:10319000E3C0FA01E157FF4F0C94F02E803881F024
:1031A000823809F0D9C080910E088F708093E900B1
:1031B0008091EB0085FB882780F91092E90007C019
:1031C00080910708882311F082E001C080E090918F
:1031D000E800977F9093E8008093F1001092F1004F
:1031E00095C0282F2D7F09F0B7C0882319F08230B1
:1031F00061F0B2C080910C08813009F0ADC093300D
:1032000009F080E0809307082BC080910C088111A1
:1032100027C080910E088F7009F49EC08093E9004A
:103220002091EB0020FF1CC0933021F48091EB0033
:10323000806214C09091EB0090619093EB0021E0CC
:1032400030E0A90102C0440F551F8A95E2F7409370
:10325000EA001092EA008091EB0088608093EB0016
:103260001092E9008091E800877F53C0811174C0FB
:1032700010910C081F778091E3008078812B809358
:10328000E3008091E800877F8093E8000E94AF16FA
:103290008091E80080FFFCCF8091E30080688093FC
:1032A000E300111102C082E001C083E080930908AD
:1032B00053C08058823008F04FC0AE014F5F5F4F5F
:1032C00060910E0880910C0890910D080E94511594
:1032D000BC01892B09F440C09091E800977F90933E
:1032E000E80089819A810E9438168091E8008B77E6
:1032F0008093E80031C0803879F58091E800877FBD
:103300008093E800809106088093F1008091E800A6
:103310008E778093E8000E94AF161EC081111CC0FA
:1033200090910C089230C0F48091E800877F8093E0
:10333000E800909306080E94AF168091060881115C
:1033400006C08091E30087FD02C081E001C084E0F7
:10335000809309080E9469148091E80083FF0AC0E5
:103360008091E800877F8093E8008091EB00806285
:103370008093EB000F900F90DF91CF911F910895F4
:10338000AF92BF92DF92EF92FF920F931F93CF9372
:10339000DF93CDB7DEB728970FB6F894DEBF0FBE28
:1033A000CDBF0DB71EB7DC012C9111963C91EDB746
:1033B000FEB7E31BF1090FB6F894FEBF0FBEEDBFD9
:1033C0004DB75EB74F5F5F4F5A01722F771F772758
:1033D000771F632F661F6627661F2F773F77772338
:1033E00079F0AC01430F511DFA01A281EA2FF0E000
:1033F000BE2FAA27FA014381FD01E40FF11D02C08F
:10340000E0E0F0E002967501AC01D42ED81AD31694
:1034100038F4DA01DD90AD01D701DD927D01F5CF01
:1034200029836D833A834A2DBC82AB827E83F887E1
:10343000EF835C818E2F98850E94AE1A81E00FB6D3
:10344000F8941EBF0FBE0DBF28960FB6F894DEBFCE
:103450000FBECDBFDF91CF911F910F91FF90EF90E5
:10346000DF90BF90AF900895DF92EF92FF920F939D
:103470001F93CF93DF93CDB7DEB728970FB6F8949D
:10348000DEBF0FBECDBF29833A834B835C836D8340
:103490007E838F839887EB80FC808091DE06662395
:1034A00091F0811123C0F701818190E0982F882746
:1034B0002081820F911D9093DD068093DC0681E0D0
:1034C0008093DE0611C0882319F01092DE060EC02C
:1034D000F701818190E0982F88272081820F911D2C
:1034E0009093DD068093DC0602E001C000E0D12C61
:1034F00010E02D2D30E08A8190E0801B910B281781
:103500003907ECF48091DC069091DD06AC0148505F
:103510005109483F534040F42E0D3F1DF901E00F83
:10352000F11F60810E94CA318091DC069091DD0616
:1035300001969093DD068093DC06D394DACF81E088
:1035400028960FB6F894DEBF0FBECDBFDF91CF91A6
:103550001F910F91FF90EF90DF900895CF93DF932D
:10356000CDB7DEB728970FB6F894DEBF0FBECDBF3C
:103570003A834B835C836D837E838F83988720316E
:1035800019F40E94341A09C03A814B815C816D8123
:103590007E818F8198850E94F10981E028960FB67F
:1035A000F894DEBF0FBECDBFDF91CF910895909309
:1035B000E4068093E30608958091E3069091E40683
:1035C0000895E091E306F091E406309721F0019030
:1035D000F081E02D099480E00895E091E306F091F8
:1035E000E406309721F00280F381E02D09940895DC
:1035F000E091E306F091E406309721F00480F58134
:10360000E02D099408952091E1063091E206821799
:10361000930771F09093E2068093E106E091E30650
:10362000F091E406309721F00680F781E02D0994AF
:1036300008952091DF063091E0068217930771F01C
:103640009093E0068093DF06E091E306F091E406B4
:10365000309721F00084F185E02D099408950E94AF
:103660001D270E9462030E94A9040E945C2C0C94F6
:10367000EA2C8F929F92AF92BF92CF92DF92EF92FD
:10368000FF920F931F93CF93DF9300D000D01F9230
:10369000CDB7DEB70E94C20306EE16E0F12C8F2DE7
:1036A0000E9453034C01F801A080B180A826B926DE
:1036B000A114B10439F4F3940E5F1F4FF4E0FF122C
:1036C000EECF39C08091AE0781FD0E945C03E12CF2
:1036D000CC24C394D12CC6018A219B21892B21F1B2
:1036E000E982FA8221E0C60188219921892B09F417
:1036F00020E02B830E9426278160782F9D838C8376
:1037000049815A816B818D810E94E11B49815A81D7
:103710006B817C818D810E94B106F801808191814D
:103720008C259D2591838083E394CC0CDD1CFBE0EC
:10373000EF12D1CFC0CF8FEF89838A831B820E9483
:1037400026278160782F9D838C8349815A816B81E4
:103750008D810E94E11B0E94E70C0E94C6291091F6
:10376000E5060E94E11A1817B9F00E94E11A809349
:10377000E5060F900F900F900F900F90DF91CF9173
:103780001F910F91FF90EF90DF90CF90BF90AF907F
:103790009F908F900C941B270F900F900F900F907D
:1037A0000F90DF91CF911F910F91FF90EF90DF90DD
:1037B000CF90BF90AF909F908F9008950C949705F5
:1037C0000895CF93DF93CDB7DEB72B970FB6F8945C
:1037D000DEBF0FBECDBF4F83588769877A878B873F
:1037E000DE01119686E0FD0111928A95E9F785E0E8
:1037F000FE01379601900D928A95E1F749815A8131
:103800006B817C818D819E810E9469232B960FB6EE
:10381000F894DEBF0FBECDBFDF91CF910895CF9357
:10382000882309F46CC0803B29F486E192E0CF91B3
:103830000C940D24C82F8CEF8C0F813A20F080E57A
:103840008C0F8E3248F48C2F0E94C72B811157C0E9
:103850008C2F0E9432260CC080E28C0F883058F4E6
:10386000C77081E001C0880FCA95EAF70E94BB26A5
:10387000CF910C94F5268BE58C0F833078F4C53A04
:1038800029F0C63A31F083E890E005C081E890E085
:1038900002C082E890E0CF910C94031B88E58C0F66
:1038A000873168F5C83A89F0C93A91F0CA3A99F077
:1038B000CB3AA1F0CC3AA9F0CD3AB1F0CE3AB9F07A
:1038C000CF3AC1F080E090E017C082EE90E014C0E3
:1038D00089EE90E011C08AEE90E00EC085EB90E09A
:1038E0000BC086EB90E008C083EB90E005C084EB52
:1038F00090E002C087EB90E0CF910C94191BCF9120
:103900000895882349F19CEF980F913A20F090E5B3
:10391000980F9E3218F40E9474260DC090E2980F02
:10392000983058F4877091E001C0990F8A95EAF7B2
:10393000892F0E94C1260C94F5269BE5980F9330A1
:1039400020F480E090E00C94031B885A873120F427
:1039500080E090E00C94191B0895882321F00E94C8
:10396000BB260C94F5260895882321F00E94C126D9
:103970000C94F52608950E94DB260E94AA260E9438
:10398000F5260E94AB2A0E94BB2980E090E00E94AD
:10399000031B80E090E00C94191B0E94CB260C9432
:1039A000BB1CCF93DF9300D000D01F92CDB7DEB702
:1039B0000E94C525292F22952F7030E02C3031052B
:1039C0004CF42A303105C4F422503109223031053B
:1039D00040F023C02C303105D1F02F303105B9F043
:1039E0001CC0853A28F48430B0F4823028F413C027
:1039F00090E2980F983078F0883E30F4803E58F48A
:103A00008450813A50F407C0803F39F404C093FBDE
:103A1000882780F903C081E001C080E00F900F90FB
:103A20000F900F900F90DF91CF910895CF9388233F
:103A300029F08A3020F4CDE1C80F01C0C7E28C2FF5
:103A40000E940F1C8C2FCF910C94811CCF92DF927F
:103A5000EF92FF920F931F93CF93DF93CDB7DEB713
:103A600027970FB6F894DEBF0FBECDBF25E0FC014F
:103A7000DE01119601900D922A95E1F7FC0140813B
:103A80005181028163817481258122952F70611596
:103A9000710509F48DC35F3F19F44F3F09F488C3E2
:103AA0006C0149835A830B83862F7D836C83602F3F
:103AB000782F8D812F830E94C525182F9E830E9409
:103AC000C4250E94B4249E81E92FE295EF70F0E0B6
:103AD000E756FF4F2F810C94F02E892F807F9F7027
:103AE000F92E882319F0F29440EFF422002349F0D4
:103AF000FF2009F476C28F2D0E94CE260E94F52663
:103B000070C2812F0E94811CFF2009F451C38F2DA8
:103B10000E94D42627960FB6F894DEBF0FBECDBF05
:103B2000DF91CF911F910F91FF90EF90DF90CF9099
:103B30000C94F526892F807F9F70F92E803219F022
:103B4000F29430EFF322112319F0113001F129C062
:103B50000023A9F08F2D222349F1213039F5279632
:103B60000FB6F894DEBF0FBECDBFDF91CF911F918E
:103B70000F91FF90EF90DF90CF900C94DE262223E0
:103B800019F0213009F414C30E94E1262CC000234F
:103B9000E9F0233008F00CC30E94B8268F2129F0E9
:103BA00022C00023F1F0211115C08F2D27960FB6EA
:103BB000F894DEBF0FBECDBFDF91CF911F910F9163
:103BC000FF90EF90DF90CF900C94AD1C223008F066
:103BD000EFC209C0F601858180FF03C28F70858323
:103BE000E4CF211129C28F2D99C1292F2695269521
:103BF000237030E02115310521F021303105C1F06D
:103C0000D7C2002319F0812F937002C080E090E0AA
:103C100027960FB6F894DEBF0FBECDBFDF91CF91D0
:103C20001F910F91FF90EF90DF90CF900C94191B94
:103C3000002349F1E12E9370F92EE114F3E0FF0621
:103C400004F184E292E00E940D242FEF80E792E0DD
:103C5000215080409040E1F700C00000A895C701C6
:103C6000807F992724E0969587952A95E1F70E9411
:103C7000161DC7018F7099270E94161D8FE192E0D3
:103C800004C2C70102C080E090E027960FB6F89406
:103C9000DEBF0FBECDBFDF91CF911F910F91FF907F
:103CA000EF90DF90CF900C94031B812F002381F0C5
:103CB0000E94CE280E94BB29163408F079C2E12F59
:103CC000F0E0E151F94F81E080838093EE0670C20D
:103CD0000E9436290E94BB29163408F069C2E12FE0
:103CE000F0E0E151F94F10821092EE0661C2892F87
:103CF000837009F079C001115BC2812F829586958E
:103D00008770880F880F212F2F70C22ED12CE12CA5
:103D1000F12C082E04C0CC0CDD1CEE1CFF1C0A94F8
:103D2000D2F714FF12C04FE050E060E070E004C032
:103D3000440F551F661F771F8A95D2F78A019B0192
:103D4000009510952095309503C000E010E0980193
:103D5000969596959370492F50E0C901B80142306D
:103D60005105D1F04330510559F16C297D298E2937
:103D70009F294130510541F127960FB6F894DEBFD7
:103D80000FBECDBFDF91CF911F910F91FF90EF90AC
:103D9000DF90CF900C94D9246C297D298E299F29FE
:103DA00027960FB6F894DEBF0FBECDBFDF91CF913F
:103DB0001F910F91FF90EF90DF90CF900C94F32420
:103DC0000E94D924C701B60127960FB6F894DEBF2A
:103DD0000FBECDBFDF91CF911F910F91FF90EF905C
:103DE000DF90CF900C94BF24002319F0892F8170AD
:103DF00001C08695882309F4DBC1812F82958695C1
:103E00008770880F880F212F2F70C22ED12CE12CA4
:103E1000F12C082E04C0CC0CDD1CEE1CFF1C0A94F7
:103E2000D2F714FF12C04FE050E060E070E004C031
:103E3000440F551F661F771F8A95D2F78A019B0191
:103E4000009510952095309503C000E010E0980192
:103E5000969596959370492F50E0C901B80142306C
:103E60005105D1F04330510559F16C297D298E2936
:103E70009F294130510541F127960FB6F894DEBFD6
:103E80000FBECDBFDF91CF911F910F91FF90EF90AB
:103E9000DF90CF900C94A0256C297D298E299F2935
:103EA00027960FB6F894DEBF0FBECDBFDF91CF913E
:103EB0001F910F91FF90EF90DF90CF900C94B2255F
:103EC0000E94A025C701B60127960FB6F894DEBF61
:103ED0000FBECDBFDF91CF911F910F91FF90EF905B
:103EE000DF90CF900C948E25103F41F118F4103ED6
:103EF00048F46DC0123F09F441C0D8F1133F09F4F2
:103F000042C065C01F70892F8F71002321F00E946D
:103F10002725812F4BCE0E944825812F27960FB64B
:103F2000F894DEBF0FBECDBFDF91CF911F910F91EF
:103F3000FF90EF90DF90CF900C94B41C0023A9F079
:103F4000223008F035C1892F8F7127960FB6F8946B
:103F5000DEBF0FBECDBFDF91CF911F910F91FF90BC
:103F6000EF90DF90CF900C946D25233008F020C1A6
:103F7000EACF002329F0892F8F7146C00023D9F39F
:103F8000892F8F716CC0002391F0892F8F71279634
:103F90000FB6F894DEBF0FBECDBFDF91CF911F915A
:103FA0000F91FF90EF90DF90CF900C941225279601
:103FB0000FB6F894DEBF0FBECDBFDF91CF911F913A
:103FC0000F91FF90EF90DF90CF900C940D25002380
:103FD00059F12223B9F093FF04C0F601858180FDD9
:103FE00011C0812F27960FB6F894DEBF0FBECDBF4C
:103FF000DF91CF911F910F91FF90EF90DF90CF90C5
:104000000C940F1C892F877027960FB6F894DEBF8B
:104010000FBECDBFDF91CF911F910F91FF90EF9019
:10402000DF90CF900C9427252223B9F093FF04C092
:10403000F601858180FD11C0812F27960FB6F89477
:10404000DEBF0FBECDBFDF91CF911F910F91FF90CB
:10405000EF90DF90CF900C94811C892F877027966A
:104060000FB6F894DEBF0FBECDBFDF91CF911F9189
:104070000F91FF90EF90DF90CF900C944825492F3F
:104080004F70612FC6010E94EC0227960FB6F8947C
:10409000DEBF0FBECDBFDF91CF911F910F91FF907B
:1040A000EF90DF90CF900C940D24011181C011236B
:1040B00041F0892F8F70843021F0907F212F2F7055
:1040C000922B9F70892F90E082309105E9F1ACF43A
:1040D000009751F1019709F06BC027960FB6F8943D
:1040E000DEBF0FBECDBFDF91CF911F910F91FF902B
:1040F000EF90DF90CF900C941A2D83309105A1F1B1
:10410000049709F055C0812F27960FB6F894DEBFAB
:104110000FBECDBFDF91CF911F910F91FF90EF9018
:10412000DF90CF900C947F2D27960FB6F894DEBFCA
:104130000FBECDBFDF91CF911F910F91FF90EF90F8
:10414000DF90CF900C94FF2C27960FB6F894DEBF2B
:104150000FBECDBFDF91CF911F910F91FF90EF90D8
:10416000DF90CF900C943D2D27960FB6F894DEBFCC
:104170000FBECDBFDF91CF911F910F91FF90EF90B8
:10418000DF90CF900C945C2D492F4F70612FC601AA
:1041900027960FB6F894DEBF0FBECDBFDF91CF914B
:1041A0001F910F91FF90EF90DF90CF900C9416022B
:1041B00027960FB6F894DEBF0FBECDBFDF91CF912B
:1041C0001F910F91FF90EF90DF90CF900895CF93C4
:1041D000DF9300D000D01F92CDB7DEB70F900F90C5
:1041E0000F900F900F90DF91CF910895CF93DF93B1
:1041F00000D000D000D0CDB7DEB726960FB6F89429
:10420000DEBF0FBECDBFDF91CF9108951F93CF9337
:10421000DF93C0912F0716E080913007C81799F0FF
:10422000D0E01C9FF0011D9FF00D1124EF5CF84FB2
:104230004081518162817381848195810E94F62041
:104240002196C770E9CFDF91CF911F9108954091DA
:1042500061075091620760916307709164078091D4
:104260006507909166070C94F62080916607829509
:104270008F7009F054C080916307882309F44FC000
:1042800080912F07A09130076091610770916207BC
:104290004091640750916507B6E08A1709F43FC062
:1042A00090E041155105C1F17F3F11F46F3FA1F13D
:1042B000B89FF001B99FF00D1124EF5CF84F2181F8
:1042C00072132AC02081621327C02281211124C0C9
:1042D000238134812417350710F421503109241B20
:1042E000350B243B3105C0F4209166072F70206107
:1042F0002093660726E0289FF001299FF00D1124E6
:10430000EA5CF84F80818F708061808381E697E05E
:104310000E94261D0C94062101968770BECF089539
:10432000BF92CF92DF92EF92FF920F931F93CF93A2
:10433000DF93CDB7DEB761970FB6F894DEBF0FBE3F
:10434000CDBF7C0185E0F701DE011D9601900D9245
:104350008A95E1F7D7014C9111965C9111971296CD
:10436000DC90129713960D911C9114973091610770
:10437000609162078091640790916507009709F446
:1043800077C16F3F19F43F3F09F472C1B0906307E2
:10439000BB2009F4C5C0209166070817190728F04B
:1043A000F801E81BF90BCF0104C080959095800FB0
:1043B000911FCC24C394843B910580F0C12C207FB5
:1043C00009F0CCC0702F198B088B6D2D89890E9444
:1043D000E72081E697E00E94261DB6C0822F807FED
:1043E00009F047C0651314C0341312C0D11010C0B7
:1043F0002F702061209366070E94272181E697E0B5
:104400000E94261D80916607D70115968C932FC0B8
:104410000115110519F15F3F11F44F3FF9F0CD2C53
:10442000D1101CC080912F072091300736E08217F1
:1044300009F45CC090E0389FF001399FF00D112421
:10444000EF5CF84F6181561306C06081461303C0CC
:104450006281611103C001968770E9CFCD2CDD2008
:1044600009F426C180916607816080936607C12C9C
:104470001FC1651308C0341306C0D11004C0809159
:104480006607D701C9C04D875E87DF86702F198BFD
:10449000088B6D2D89890E94D11C8823E9F1DD20CC
:1044A000D9F120916607822F82958F7090E0029754
:1044B00074F0809161079091620798878F831986C5
:1044C0001B870A872C87CE0107960E94261D86E04F
:1044D000F701A1E6B7E001900D928A95E1F70E94FD
:1044E00035210E942721CC24C394E2C0702F198B60
:1044F000088B60E089890E94C525292F22952F709D
:1045000030E0223031050CF0C7C09F7009F0C1C007
:10451000805E883008F4CCC0C7010E94261DE3CF1E
:104520000817190708F456C0F801E81BF90BCF016A
:10453000843B910508F453C0C12C702F198B088B54
:104540006D2D89890E94E720E1E6F7E086E0DF0132
:104550001D928A95E9F70E942721AAC0651314C00D
:10456000341312C0D11010C080916607F701858303
:10457000C7010E94261D86E0E1E6F7E0DF011D92FB
:104580008A95E9F7CB2C94C04D875E87DF86702F24
:10459000198B088B6D2D89890E94D11C882309F401
:1045A000BBCFDD2009F4B8CF20916607822F82951A
:1045B0008F7090E002970CF48ACF80916107909100
:1045C00062079A8389831B821D830C832E83CE010D
:1045D00001967BCF80959095800F911FA9CFCD2C10
:1045E000DD2009F499CF65132EC034132CC020911F
:1045F000660720FD1FC0822F82958F70D9F0D701EA
:1046000015962C9315978F3049F08F5F982F9295C0
:10461000907F822F8F70892B15968C93C7010E94F3
:10462000261D86E0F701A1E6B7E001900D928A957C
:10463000E1F791CF86E0F701A1E6B7E001900D9296
:104640008A95E1F735C04D875E87DF86702F198B1D
:10465000088B6D2D89890E94D11C811138CF8091E2
:104660006607816080936607C7010E94261D20C0EF
:10467000DD2009F451CF4D875E87DF86702F198BBF
:10468000088B6D2D89890E94D11C882309F444CFA1
:104690001ECF81113DCF0CC0243031050CF03CCF32
:1046A0009F7009F435CFF7019581907F09F030CFE5
:1046B0008C2D61960FB6F894DEBF0FBECDBFDF9193
:1046C000CF911F910F91FF90EF90DF90CF90BF900F
:1046D00008951F93CF93DF93CDB7DEB72C970FB616
:1046E000F894DEBF0FBECDBF4F83588769877A87A6
:1046F0008B879C87CE0107960E949021882369F0C2
:104700008F8198852A853B85232BF1F19F3F09F006
:1047100063C08F3F09F060C037C086E0FE01379666
:10472000DE01119601900D928A95E1F76F817885EF
:10473000EA85FB85309741F17F3F11F46F3F21F10E
:104740002091300730E0C901019687709927409188
:104750002F0750E08417950709F447C069837A83CF
:10476000FD83EC8396E0929FD001939FB00D1124BE
:10477000AF5CB84FFE01319601900D929A95E1F72A
:10478000809330070E94062116E080912F079091B8
:1047900030078917C1F1189FC00111248F5C984F11
:1047A0000E949021882379F1E0912F071E9FF0014C
:1047B0001124EF5CF84F40815181628173818481C3
:1047C00095810E94F62080912F0790E001968770D6
:1047D000992780932F07D9CF4F81588569857A858E
:1047E0008B859C850E94F620CFCF0E94CD1C109215
:1047F000300710922F07E1E6F7E086E0DF011D9217
:104800008A95E9F7C1CF2C960FB6F894DEBF0FBE9C
:10481000CDBFDF91CF911F910895DF92EF92FF926C
:104820000F931F93CF93DF93FC01892B09F48AC068
:10483000E12CF12CDD24D394EF012196849185376E
:1048400009F461C058F4843708F04EC0843008F091
:104850006AC08130D1F0823071F174C0883709F4B8
:104860005DC050F4863709F455C0873709F06AC037
:104870008E2D0E94C82654C09CE7980F903708F0F0
:1048800061C08F770E94811C50C08F010E5F1F4F47
:10489000FE01849190E2980F983050F48770FD2DBE
:1048A00001C0FF0F8A95EAF78F2F0E94CE2614C011
:1048B0000E940F1C13C08F010E5F1F4FFE01C49199
:1048C00080E28C0F883060F4C7708D2D01C0880F96
:1048D000CA95EAF70E94D4260E94F526E80125C071
:1048E0008C2F0E94811CFACF9F012E5F3F4FFE014B
:1048F000C491CC2369F08FEC97E00197F1F700C0E9
:104900000000C150F6CF9F012E5F3F4FFE01F49093
:10491000E9010BC00E94B826E82E07C00E94CB26F2
:104920000E94F52602C00E940F1C8F2D882341F0A3
:10493000EFECF7E03197F1F700C000008150F6CFBF
:10494000FE017ACFDF91CF911F910F91FF90EF90F1
:10495000DF90089560939307709394078093950771
:10496000909396070C94C2050895609397077093EF
:1049700098078093990790939A070C9401060F93D8
:104980001F930091970710919807209199073091F4
:104990009A07602B712B822B932B60939707709350
:1049A00098078093990790939A071F910F910C9401
:1049B00001060F931F93009197071091980720917C
:1049C000990730919A076023712382239323609380
:1049D0009707709398078093990790939A071F9170
:1049E0000F910C9401060F931F930091970710915C
:1049F00098072091990730919A076027712782279D
:104A000093276093970770939807809399079093E3
:104A10009A071F910F910C94010660E070E0CB01A2
:104A20000C94AA240F931F9341E050E060E070E0E3
:104A30008A019B0104C0000F111F221F331F8A959A
:104A4000D2F7C901B8011F910F910C94AA240F93BA
:104A50001F9341E050E060E070E004C0440F551F38
:104A6000661F771F8A95D2F78091930790919407DC
:104A7000A0919507B09196078A019B01082B192BED
:104A80002A2B3B2BC901B8011F910F910C94AA242A
:104A90000F931F9341E050E060E070E004C0440FCA
:104AA000551F661F771F8A95D2F7409550956095E0
:104AB00070958091930790919407A0919507B0917C
:104AC00096078A019B01082319232A233B23C90146
:104AD000B8011F910F910C94AA240F931F9341E0EA
:104AE00050E060E070E004C0440F551F661F771F60
:104AF0008A95D2F78091930790919407A09195079A
:104B0000B09196078A019B01082719272A273B277E
:104B1000C901B8011F910F910C94AA240F931F9300
:104B20000091930710919407209195073091960773
:104B3000602B712B822B932B1F910F910C94AA2425
:104B40000F931F930091930710919407209195075D
:104B50003091960760237123822393231F910F9135
:104B60000C94AA240F931F9300919307109194071C
:104B70002091950730919607602771278227932708
:104B80001F910F910C94AA2408958F929F92AF9237
:104B9000BF92DF92EF92FF920F931F93CF93DF9319
:104BA00000D000D01F92CDB7DEB78A016623C9F1CD
:104BB0008090970790909807A0909907B0909A07D7
:104BC0008091930790919407A0919507B0919607D3
:104BD000882A992AAA2ABB2A8FE1E82EF12CD5012E
:104BE000C4010E2C04C0B695A795979587950A9495
:104BF000D2F780FF07C0DE2CB8018E2D0E94E001A5
:104C0000019729F481E0E81AF10848F7D12C8BE0EC
:104C1000189FF0011124E00FF11DE959F84FD082DF
:104C200009C08BE0189FF0011124E40FF11DE95930
:104C3000F84FD08009831A8369817A818D2D0E9473
:104C4000E0010F900F900F900F900F90DF91CF9198
:104C50001F910F91FF90EF90DF90BF90AF909F90CA
:104C60008F90089590911B01992321F090911C0140
:104C7000911109C020911D0130911E01F901329658
:104C80009FEF40E01FC0982F9695969596959F3080
:104C900050F5E0911D01F0911E01E90FF11D8770A3
:104CA00021E030E0A90102C0440F551F8A95E2F7C8
:104CB000CA019181892B818308959F3F39F04F5F0D
:104CC0004E3041F051915813F8CF0DC05111F7CF2C
:104CD000942FF5CF9F3F39F0F901E90FF11D97FDB2
:104CE000FA9582830895089590911B01992321F0EC
:104CF00090911C01911109C020911D0130911E015C
:104D0000F9013296205F3F4F1FC0982F96959695D8
:104D100096959F30F0F4E0911D01F0911E01E90F8E
:104D2000F11D877021E030E0A90102C0440F551F3A
:104D30008A95E2F7CA01809591818923818308953C
:104D40003196E217F30729F090819813F9CF10827A
:104D5000F7CF089581E090E0E0911D01F0911E01F0
:104D6000E80FF91F1082019680319105A9F7089587
:104D70008091AD0708959091AD07892B8093AD0781
:104D8000089580959091AD0789238093AD0708958C
:104D90008093AD0708951092AD0708959091AC07E8
:104DA000892B8093AC07089580959091AC07892357
:104DB0008093AC0708951092AC07089580939B07E9
:104DC000089510929B07089580911D0190911E01F6
:104DD000FC0131969C01205F3F4F80E09191911141
:104DE0008F5FE217F307D1F70895E0911D01F0916D
:104DF0001E018091AD078083E0911D01F0911E019D
:104E000090818091AC07892B808380919B078823B8
:104E100061F0E0911D01F0911E019081892B80834A
:104E20000E94E426811110929B0780911D019091B0
:104E30001E010C94ED1A0C94DE1B82E084BD93E0FD
:104E400095BD9DE797BD80936E0008952FB7F894A8
:104E50008091AF079091B007A091B107B091B207D0
:104E60002FBF08952FB7F8946091AF077091B007E6
:104E70008091B1079091B2072FBF0895CF92DF9232
:104E8000EF92FF920F931F932FB7F8944091AF07C3
:104E90005091B0076091B1077091B2072FBF6A01BE
:104EA0007B01EE24FF248C0120E030E0C016D10607
:104EB000E206F30610F4415051099A01281B390B00
:104EC000C9011F910F91FF90EF90DF90CF9008954F
:104ED000CF92DF92EF92FF920F931F932FB7F89428
:104EE000C090AF07D090B007E090B107F090B20744
:104EF0002FBF97018601061B170B280B390BC6160F
:104F0000D706E806F90618F0C901B80106C0C901BC
:104F1000B80161507109810991091F910F91FF90AA
:104F2000EF90DF90CF90089578941F920F920FB674
:104F30000F9211248F939F93AF93BF938091AF07EC
:104F40009091B007A091B107B091B2070196A11D51
:104F5000B11D8093AF079093B007A093B107B093B2
:104F6000B207BF91AF919F918F910F900FBE0F909D
:104F70001F9018950E940017F8942FEF83ED90E38F
:104F8000215080409040E1F700C0000087E090EBA6
:104F9000DC018093130890931408A0931508B09334
:104FA00016089CE088E10FB6F894A89580936000FD
:104FB0000FBE90936000FFCF1F920F920FB60F921B
:104FC00011248F939F93AF93BF938091B307811167
:104FD00013C08091AF079091B007A091B107B09135
:104FE000B2074196A11DB11D8093AF079093B00702
:104FF000A093B107B093B207BF91AF919F918F91EA
:105000000F900FBE0F901F90189580910908843063
:1050100009F431C00FB6F894A895809160008861BA
:1050200080936000109260000FBE1092B30720E4DE
:1050300088E190E00FB6F894A895809360000FBEC9
:10504000209360000E94D70C83B7817F846083BF68
:1050500083B7816083BF7894889583B78E7F83BF41
:105060000FB6F894A89580916000886180936000E5
:10507000109260000FBE08950C94DC0C2BE0929F00
:10508000F0011124E80FF11DEA59FE4F9491892F88
:105090008F7092959F7008958091B80780FF0BC024
:1050A0006091220185E0689FB00111247595679594
:1050B000759567952BC081FF09C06091220185E03D
:1050C000689FB00111247595679520C082FF07C0C5
:1050D0006091220185E0689FB001112417C0909172
:1050E000B9079923D1F060912101961788F7209193
:1050F000220185E0289F90011124929FA001939F97
:10510000500D112470E0CA010E94DC2E6038710538
:1051100040F46115710539F002C065E070E0862F3A
:1051200008958FE7089581E008958091B80780FF82
:1051300008C06091200170E0759567957595679539
:1051400021C081FF06C06091200170E075956795D0
:1051500019C082FF04C06091200170E010C09091DE
:10516000B9079923C1F060911F019617A0F78091AC
:105170002001899FC001112470E00E94DC2E60385C
:10518000710528F46115710521F0862F08958FE7C8
:10519000089581E0089561E070E0F4CF803F21F44C
:1051A0000E944C28819504C0813F29F40E944C281C
:1051B0008093BC070895823F21F40E944C2881957A
:1051C00004C0833F29F40E944C288093BB070895B4
:1051D000893F19F40E94952805C08A3F31F40E9446
:1051E000952881958093BD0708958B3F21F40E94F7
:1051F0009528819504C08C3F29F40E9495288093BE
:10520000BE070895843F21F48091BA07816017C0DA
:10521000853F21F48091BA07826011C0863F21F456
:105220008091BA0784600BC0873F21F48091BA0750
:10523000886005C0883F31F48091BA07806180930F
:10524000BA0708958D3F21F48091B80781600BC0A3
:105250008E3F21F48091B807826005C08F3F29F40A
:105260008091B80784608093B8070895803F39F42F
:105270008091BC0787FF6CC01092BC0769C0813F5A
:1052800029F48091BC071816BCF362C09091BB074B
:10529000823F29F497FF5CC01092BB0759C0833F3F
:1052A00019F41916CCF354C0893F41F48091BD071D
:1052B00018160CF04DC01092BD074AC08A3F29F461
:1052C0008091BD0787FF44C0F6CF8B3F39F48091B2
:1052D000BE0787FF3DC01092BE073AC08C3F29F43D
:1052E0008091BE071816BCF333C0843F21F480912F
:1052F000BA078E7F17C0853F21F48091BA078D7F52
:1053000011C0863F21F48091BA078B7F0BC0873F85
:1053100021F48091BA07877F05C0883F31F48091DE
:10532000BA078F7E8093BA0713C08D3F21F4809116
:10533000B8078E7F0BC08E3F21F48091B8078D7F18
:1053400005C08F3F29F48091B8078B7F8093B80701
:105350008091BB0781110EC08091BC0781110AC0EA
:105360008091BD07811106C08091BE07811102C0E6
:105370001092B90708958AEB97E00E94F81A0E94EC
:1053800026279093B5078093B40708950F931F9332
:10539000CF93DF938091EE068823C9F18091B60701
:1053A0009091B7070E943E270B9788F103EF16E014
:1053B000C4E0F80181918F01882351F08C2F0E9465
:1053C00032260E94F5268C2F0E9474260E94F52614
:1053D000CF5FC63471F78091EF06882391F08091FA
:1053E000BA0781608093BA078AEB97E00E94F81AA7
:1053F0008091BA078E7F8093BA078AEB97E00E946C
:10540000F81A0E9426279093B7078093B6078091D9
:10541000B4079091B5070E943E27AC019091B9075F
:10542000992321F02091230130E006C0209124012E
:10543000FAE02F9F900111244217530708F486C009
:105440008091BB07C091BC07D091BD071091BE07EA
:10545000811107C0C11176C0D11174C0111172C081
:1054600075C09F3F19F09F5F9093B907181624F4F9
:105470000E944C288093BB078091BB0787FF05C023
:105480000E944C2881958093BB071C1624F40E942F
:105490004C288093BC078091BC0787FF05C00E9401
:1054A0004C2881958093BC076091BB07662331F13E
:1054B000C091BC07CC2311F1062E000C770B880B92
:1054C000990B0E94CF2D23E333E343E35FE30E9474
:1054D000332E0E94972D6093BB076C2FCC0F770B58
:1054E000880B990B0E94CF2D23E333E343E35FE363
:1054F0000E94332E0E94972D6093BC071D1624F442
:105500000E9495288093BD078091BD0787FF05C045
:105510000E94952881958093BD07111624F40E945E
:1055200095288093BE078091BE0787FF05C00E9423
:10553000952881958093BE07DF91CF911F910F91A0
:105540000C94BB299F3F09F08ECF96CFDF91CF916E
:105550001F910F910895EAEBF7E085E0DF011D92BE
:105560008A95E9F71092B9071092B8070895833029
:1055700081F128F4813059F08230D1F008958530DE
:1055800009F449C0B8F1863009F456C008958091F5
:105590002401262F30E0280F311D2F3F310524F440
:1055A000680F6093240108958FEF8093240108957C
:1055B00080912301262F30E0280F311D2F3F310528
:1055C00024F4680F6093230108958FEF80932301E3
:1055D000089580912201262F30E0280F311D2F3FA2
:1055E000310524F4680F6093220108958FEF8093B2
:1055F0002201089580912101262F30E0280F311DCE
:105600002F3F310524F4680F6093210108958FEF37
:1056100080932101089580912001262F30E0280FEA
:10562000311D2F3F310524F4680F60932001089548
:105630008FEF80932001089580911F01262F30E085
:10564000280F311D2F3F310524F4680F60931F018F
:1056500008958FEF80931F010895833011F128F48E
:10566000813049F0823091F00895853081F120F148
:105670008630C1F1089580912401681720F4861BBB
:1056800080932401089510922401089580912301AC
:10569000681720F4861B809323010895109223013C
:1056A000089580912201681720F4861B80932201BF
:1056B000089510922201089580912101681720F425
:1056C000861B8093210108951092210108958091F5
:1056D0002001681720F4861B809320010895109202
:1056E0002001089580911F01681720F4861B809384
:1056F0001F01089510921F0108950F931F9389327F
:10570000E1F028F4813159F0E0F192EE04C08533E4
:10571000A1F0B8F196EC980F9A3098F50EC00E945F
:10572000CD1C0E94DC1A8151914049F590911C01D9
:1057300081E0892780931C0122C092EE980F993056
:1057400010F48D5105C096EC980F993020F48953D0
:105750008830A8F401C080E041E050E060E070E0F3
:105760008A019B0104C0000F111F221F331F8A955D
:10577000D2F7C901B8010E94B5240E94CD1C81E076
:1057800001C080E01F910F91089580E00895CF93AC
:10579000C82F8091C007813069F018F08230C9F1BC
:1057A00081C0E0911D01F0911E018081823209F0DB
:1057B0007BC007C0E0911D01F0911E018081823203
:1057C00061F48C2F0E945112811104C08C2F0E9411
:1057D0007D2B1DC081E090E01AC08C2F0E94C52B4C
:1057E000811114C0C43179F048F4CB3079F0C03164
:1057F00009F05EC082E08093C00708C0C93219F08A
:10580000C83321F055C01092C00752C081E08170AA
:1058100051C0C93279F108F5C43161F1B0F4C73033
:1058200009F044C08EE18093240182E38093230138
:105830008AE08093220184E18093210188E08093B3
:10584000200188E280931F0131C082EE8C0F8630E8
:1058500068F5CD51C093BF0729C0CE34E9F020F4DC
:10586000CB3421F56AE013C0C13579F0C235F1F4CB
:1058700061E00DC08091BF07882319F01092BF0727
:1058800015C081E08093C00715C061E006C080911B
:10589000BF070E94B72A0AC06AE08091BF070E9432
:1058A0002D2B04C01092C00780E004C081E002C02C
:1058B00080E0ADCFCF910895E1E8F0E0808188608D
:1058C00080838081816080838FB7F8949AE790937A
:1058D000890092E1909388008FBF0895EFE6F0E091
:1058E00080818260808308958093C30708951F920A
:1058F0000F920FB60F9211242F933F934F935F9304
:105900006F937F938F939F93AF93BF93EF93FF9387
:105910008091C4078823C1F08091C2078F5F809374
:10592000C2079091C307981778F41092C207E091CC
:10593000C107F0E0E35DFD4F84910E94AE068091C7
:10594000C1078F5F8093C1070E94F506FF91EF9119
:10595000BF91AF919F918F917F916F915F914F9187
:105960003F912F910F900FBE0F901F9018956DEEE5
:105970007EEF80E090E00E94E83160E082E090E01D
:105980000E94CA3160E083E090E00E94CA3160E08A
:1059900084E090E00E94CA3160E085E090E00E94DF
:1059A000CA3160E086E090E00C94CA3180E090E07B
:1059B0000E94C43121E08D3E9E4F09F020E0822FED
:1059C000089586E090E00C94B631682F86E090E070
:1059D0000C94CA310E94D62C811102C00E94B72CAF
:1059E0000E94E12C80931208811102C081E005C061
:1059F00080FF02C0869501C080E00C947B068091F8
:105A00001208982F9695292F30E0817028303105A3
:105A10004CF49F5F990F892B8160809312080E943C
:105A2000E52C03C08061809312088091120886954E
:105A30000C947B068091120880FF1EC0982F9695CB
:105A4000292F30E02230310594F09158990F817060
:105A5000892B809312088E7F91E009F490E0809169
:105A6000120890FB80F9809312080E94E52C809127
:105A7000120886950C947B06089580911208982F41
:105A80009095917090FB80F980931208992339F0DA
:105A9000982F9E7F21F481708260809312088091FC
:105AA00012080E94E52C8091120880FF02C08695A2
:105AB00001C080E00C947B0690911208892F869596
:105AC0008F5F8F779170893028F4880F892B8093AE
:105AD000120802C090931208809112088E7F91E004
